:020000040801F1
:104000000070022049080308E1100308E3100308C8
:10401000E5100308E7100308E9100308000000009A
:10402000000000000000000000000000310503084F
:104030009908030800000000E1050308EB100308DD
:104040009908030899080308D71603089908030874
:10405000EB16030899080308990803089908030850
:10406000990803089908030899080308F910030838
:104070009908030899080308990803089908030890
:10408000151103082511030835110308451103080C
:10409000511103085D1103087D110308C1130308C2
:1040A0009D160308B5160308990803089908030824
:1040B00099080308990803080000000099080308FC
:1040C000990803081B140308271403089908030818
:1040D00009110308990803086515030899080308DE
:1040E000E7130308CD1603080000000000000000DD
:1040F00000000000000000000000000000000000C0
:104100000000000099080308000000009908030857
:1041100099080308000000002916030800000000A9
:1041200099080308990803089908030899080308DF
:10413000990803089908030899080308000000007B
:1041400099080308990803089908030899080308BF
:1041500099080308990803089908030899080308AF
:10416000990803089908030899080308000000004B
:104170000000000099080308000000000000000093
:10418000990803089908030899080308990803087F
:04419000990803087F
:10419400000000000000000000000000000000001B
:1041A400000000000000000000000000000000000B
:1041B40000000000000000000000000000000000FB
:1041C40000000000000000000000000000000000EB
:1041D40000000000000000000000000000000000DB
:1041E40000000000000000000000000000000000CB
:1041F40000000000000000000000000000000000BB
:1042040000000000000000000000000000000000AA
:10421400000000000000000000000000000000009A
:10422400000000000000000000000000000000008A
:10423400000000000000000000000000000000007A
:10424400000000000000000000000000000000006A
:10425400000000000000000000000000000000005A
:10426400000000000000000000000000000000004A
:10427400000000000000000000000000000000003A
:10428400000000000000000000000000000000002A
:10429400000000000000000000000000000000001A
:1042A400000000000000000000000000000000000A
:1042B40000000000000000000000000000000000FA
:1042C40000000000000000000000000000000000EA
:1042D40000000000000000000000000000000000DA
:1042E40000000000000000000000000000000000CA
:0C42F400000000000000000000000000BE
:104300006C430408637562652D776865656C2D32B2
:10431000000000000000000000000000000000009D
:1043200000000000636F6E74726F6C2D70726F67A7
:1043300072616D000000000000000000000000003D
:1043400000000000030402000405000061726D2DEE
:104350006E6F6E652D656162692D67636300000095
:10436000000000000000000000000000392E322E86
:1043700031203230313931303235202872656C6568
:104380006173652900000000000000006D61737416
:104390006572000000000000000000000000000046
:1043A000000000000000000000000000D16AB464BA
:1043B0006C84C866000000000000000000000000DF
:1043C0006C60AB01700303000040010000000000BE
:1043D00010B5054C237833B9044B13B10448AFF33F
:1043E00000800123237010BD90A900200000000070
:1043F000D489030808B5034B1BB103490348AFF345
:10440000008008BD0000000094A90020D4890308A2
:1044100050B108B5074A1060806840B11BF020FD1C
:10442000044B5860002008BD4FF0FF30704700205B
:10443000F9E700BFACA9002038B5124B5C68BCB1ED
:1044400005461B681A68AAB15B68834214D3ABB1F6
:104450004FF0FF3120461BF038FD88B9094A136838
:104460005C68651B5D601C682C4450681BF06CFD2B
:10447000204638BD1446FBE70024F9E70024F7E79F
:104480000024F5E7ACA9002038B501FB00F4204674
:10449000FFF7D2FF054618B12246002121F05CFE4D
:1044A000284638BD704700BF50B108B5074A1060B4
:1044B000006940B11BF0D4FC044B5860002008BDDB
:1044C0004FF0FF3070470020F9E700BFB4A900208B
:1044D00070B50446224B1868002831D00D465B6841
:1044E000002B2ED001FB04F64268B2422BD30268A7
:1044F0005AB382685AB3C2685AB34FF0FF311846B4
:104500001BF0E3FC38BB16490B68DA68013ADA6045
:104510005A68921B5A6048681BF016FDE8B9104BA8
:104520001B68D96801EB41019A6802EBC102196866
:104530005B680B4413615661294620461BF049FE17
:1045400070BD1846FCE70020FAE71046F8E7104671
:10455000F6E70020F4E70020F2E70020F0E700BFD4
:10456000B4A9002008B51BF03BFF08BD08B51346F1
:1045700000221BF06BFEB0FA80F0400908BD08B5C0
:1045800000231A461BF062FEB0FA80F0400908BD15
:1045900008B5134600221BF0B1FEB0FA80F04009C6
:1045A00008BD08B500231A461BF0A8FEB0FA80F03B
:1045B000400908BD08B51BF0F7FE08BD08B51BF0A3
:1045C000F3FE08BD50B108B5074A1060006940B15C
:1045D0001BF046FC044B5860002008BD4FF0FF3034
:1045E00070470020F9E700BFBCA900201C4B1B68E6
:1045F00023B310B504461A4A506810B39A681AB328
:10460000DB6823B34FF0FF311BF05FFC10BB144A93
:104610001168CB68013BCB6050681BF095FCE0B99A
:104620000F4B1B68D8689B6803EB00101BF018FC4D
:104630002060B0FA80F04009404210BD4FF0FF30DA
:1046400070474FF0FF30F8E74FF0FF30F5E74FF0DD
:10465000FF30F2E74FF0FF30EFE74FF0FF30ECE7CD
:10466000BCA9002008B500681BF0A1FC003818BFE9
:104670000120404208BD08B500681BF026FC003848
:1046800018BF0120404208BD08B500681BF05CFC63
:10469000003818BF0120404208BD1E4B1B6833B3D1
:1046A00010B504461B4A506820B31A682AB35B68E9
:1046B00033B34FF0FF311BF008FC20BB154A1168E3
:1046C0004B68013B4B6050681BF03EFCF0B9114B4E
:1046D0001B685A681B6803EB0212012108461BF095
:1046E00088FC2060B0FA80F04009404210BD4FF0D5
:1046F000FF3070474FF0FF30F8E74FF0FF30F5E73D
:104700004FF0FF30F2E74FF0FF30EFE74FF0FF30B0
:10471000ECE700BFBCA9002008B500681BF038FD1D
:10472000003818BF0120404208BD08B500681BF0E2
:10473000ADFC003818BF0120404208BD08B5006834
:104740001BF0EAFC003818BF0120404208BD08B544
:1047500000681BF0E1FC003818BF0120404208BD92
:1047600090B108B50E4A1060026812F0070F0ED122
:10477000426812F0070F0DD1006970B11BF070FB99
:10478000074B5860002008BD4FF0FF3070474FF0D6
:10479000FF30F8E74FF0FF30F5E70020F3E700BF08
:1047A000C4A900202DE9F0471F46DDF824902E4BC8
:1047B0001B68002B40D006468846D51D25F007050E
:1047C0002949486800283AD0596891423AD39A68F2
:1047D000002A3AD0DB68002B3AD04FF0FF311BF0B3
:1047E00074FB002837D120490B68DA68013ADA6097
:1047F0005A68521B5A6048681BF0A6FB824668BB89
:10480000194B1B68DC6804EBC404996801EB840253
:1048100041F8248019685B680B441361556139467F
:1048200030461BF03CF9E0B1B9F1000F01D0C9F8F6
:1048300000005046BDE8F0874FF0FF3AF9E74FF02F
:10484000FF3AF6E74FF0FF3AF3E74FF0FF3AF0E7B1
:104850004FF0FF3AEDE76FF0030AEAE76FF0030A63
:10486000E7E74FF0FF3AE4E7C4A9002008B51BF0E2
:1048700069F910B504461BF00FF904FB00F0034C76
:10488000A4FB003080091BF021FA10BDD34D62104B
:1048900010B5074B186820B1FFF764FE044B0022E7
:1048A0001A60034C6068FFF7FDFD0023636010BDD4
:1048B000CCA900202DE9F04182B01C4B1F8B1B3787
:1048C00027F00307D88A07FB00F0FFF7B5FD184B68
:1048D000586040B30421154BD88AFFF7F9FD144BFB
:1048E0001860D8B1114BDB8A0020A3B10024254603
:1048F0000F4EDFF838807368234401935B60002219
:1049000001A93068FFF732FE01353C44B8F8163093
:10491000AB42F0D8002002B0BDE8F081FFF7B8FF4D
:104920004FF0FF30F7E74FF0FF30F4E7A03A0120F7
:10493000CCA900200F4B1B8B834216D300B583B04C
:104940000023019300936A4601A90B4B1868FFF7F7
:1049500028FE019830B14368984208D101230360D2
:104960000198083003B05DF804FB00207047002078
:10497000F8E700BFA03A0120CCA900200E4B1B8B0A
:10498000834214D300B583B00022019201A90B4BDE
:104990001868FFF7FDFD019830B14368984208D1CF
:1049A000012303600198083003B05DF804FB002088
:1049B00070470020F8E700BFA03A0120CCA90020F2
:1049C000F8B100B583B0A0F10803019313F0030F11
:1049D00003D150F8041C8B4202D003B05DF804FBF5
:1049E00050F8083C002BF8D0013B40F8083C002B65
:1049F000F3D100936A4601A9024B1868FFF7BFFD87
:104A0000EBE77047CCA90020F0B100B583B0A0F16E
:104A10000803019313F0030F03D150F8041C8B42D9
:104A200002D003B05DF804FB50F8083C002BF8D02E
:104A3000013B40F8083C002BF3D1002201A9034BB5
:104A40001868FFF793FDECE7704700BFCCA9002082
:104A500038B5054660B14089FFF790FF044628B19C
:104A6000044B1A8B1032294621F04EFB204638BDEC
:104A70000446FBE7A03A012008B5024B1868FFF78F
:104A800099FD08BDCCA90020014B188B1030704750
:104A9000A03A0120014B188B704700BFA03A0120BB
:104AA000014B1878704700BFA03A012038B5054681
:104AB00000F0F0FF184C28686968AA68EB680FC41A
:104AC00028696969AA69EB690FC4FFF7F3FE044618
:104AD00008B1204638BD01F015F804460028F8D189
:104AE00000F0DAF904460028F3D100F031FA044668
:104AF0000028EED1094D284601F0E2FAFF232A46AC
:104B000005210548007800F02BFEFF232A460521E9
:104B1000202000F025FEDCE7A03A01200000002064
:104B200008B500F039FF00F029FA00F0C7F901F0EC
:104B30003DF8FFF7ADFE20220021024821F00CFBDA
:104B400008BD00BFA03A012000487047A03A0120EC
:104B500070B530F4807302D00025284670BD04463D
:104B6000012001F06DF805460028F6D014F4807F8E
:104B700003D100230361AC61EFE70421064B587CAD
:104B8000FFF7A6FC064628610028F4D1284601F06C
:104B9000D1F83546E1E700BFA03A012078B10A46D6
:104BA000006968B100B583B001A9FFF7F1FC0128E5
:104BB00003D0002003B05DF804FB0198FAE77047CA
:104BC000704700B583B00023019360B10A46417875
:104BD000012907D101A9C068FFF7DAFC012805D136
:104BE000019800E0002003B05DF804FB0020FAE724
:104BF000002930D070B5034610460D4672B31468D4
:104C0000CB60C3F34462174909788A420FD06E899A
:104C1000238A0BB19E4218D8E36829469847A0B969
:104C2000636901336361236B3344236370BDDAB27C
:104C300013F0080F09D112F0010F1CBF22F001027E
:104C400062F3070313F0040FE1D0E3690133E3617A
:104C50006FF00900EAE76FF0090070476FF0090094
:104C6000E4E700BFA03A0120C0B170B50C4615467C
:104C70000646A9B14378012B01D0002070BD4089C0
:104C8000C0F3041000F060FE02462B462146B068D7
:104C9000FFF7AEFFB0FA80F04009EFE70020704761
:104CA0000020EBE738B5054608461146C47A65F39F
:104CB0008714C4721A46FFF7D7FF38BD2DE9F843B1
:104CC00005460E4617461C46DDF824801846434527
:104CD000B8BF4046FFF752FEB8B38146002C05DD51
:104CE00027B122463946103021F00EFAA9F80A40C1
:104CF000324649462846FFF7B7FF044630B1B8F1BF
:104D0000000F07D101242046BDE8F8834846FFF78D
:104D10007BFEF8E731462846FFF753FF0546B0B162
:104D2000B8F1FF3F02D0438943450AD16A8905F1B2
:104D30001001089821F0E8F96C892846FFF764FE15
:104D4000E1E7FFF761FE0024DDE70024DBE7002454
:104D5000D9E730B583B01C460A9B0093002300F0CE
:104D6000EEFF80B10546099B0193089B0093079BCA
:104D7000069A2146FFF7A2FF0446284600F0DAFF14
:104D8000204603B030BD0024FAE780B10A468169AD
:104D900011F4807F0CD000B583B00021019101A9EE
:104DA0000069FFF7F5FB019803B05DF804FB70475D
:104DB0000020704770B5064608460499059C0025FA
:104DC000257311F0010F24D111F0540F24D1E18982
:104DD00060F30811E181E56862F39335E560C5F39E
:104DE00007650F4A127862F34505627B63F305029B
:104DF000627366F38715E57300F0A6FD0246069B15
:104E00002146E068FFF7F4FE002818BF6FF00400A9
:104E100070BD6FF00100FBE76FF00400F8E700BF22
:104E2000A03A012090B170B584B0C668457BC07BC4
:104E3000029301910092C6F3853305F03F02C0F35F
:104E400044018009FFF7B6FF04B070BD6FF00100A8
:104E5000704700BF0E4BDB7C834217D310B40D4A62
:104E6000126802EBC00412F8301001290AD0013395
:104E700002EBC30112F83330012B05D000205DF89E
:104E8000044B70476068FAE74868F8E7002070470D
:104E9000A03A0120D4A9002008B5064BD87C0821EF
:104EA0000230FFF7F1FA044B1860B0FA80F04009C5
:104EB000404208BDA03A0120D4A9002010B5034CFF
:104EC0002068FFF7EFFA0023236010BDD4A900206B
:104ED000034668B110B508461C460421FFF7F8FAEE
:104EE000206140B1A36943F48053A361002010BD49
:104EF0006FF0010070474FF0FF30F8E7D0B1024685
:104F0000FF2912D0104BDB7C8B4216D310B40F4B11
:104F10001B6803EBC10413F8310088B962600122F9
:104F200003F831205DF8044B7047074BD97C013101
:104F3000C9B2EBE76FF0010070476FF001007047F6
:104F40006FF00300EEE700BFA03A0120D4A90020D3
:104F500008B5084B1B680BB1002008BD0821064BA3
:104F6000987CFFF7B5FA034B18600028F4D14FF096
:104F7000FF30F2E7D8A90020A03A012008B5044B81
:104F8000186820B1FFF7EEFA014B00221A6008BD45
:104F9000D8A9002008B501464FF0FF32044B18682D
:104FA000FFF7F6FA01280CBF00206FF0020008BDE1
:104FB000D8A9002008B5024B1868FFF7FBFA08BD16
:104FC000D8A9002058B330B583B00C46054689B146
:104FD00000910190AAB16946114B1868FFF7CFFA0A
:104FE000012805D0636A013363622846FFF7E8FCB5
:104FF00003B030BD12B1FFF7E3FCF9E7FFF704FDA2
:10500000F6E76946064B1868FFF7B0FA0128EFD0BB
:10501000636A013363622846FFF7F6FCE8E77047EE
:10502000D8A9002000B583B0002200920192694601
:10503000034B1868FFF79AFA03B05DF804FB00BF52
:10504000D8A9002070B584B002A8FFF7A3FF0028FC
:1050500040F0C6800446039B0193002B00F0C38000
:10506000029A9169013191615889516B01445163F0
:10507000D889C0F3041069490978884205D0D989D4
:1050800001F4F871B1F5F87F4DD1197B11F0040FDF
:1050900063D111F0080F69D111F0020F6AD1D868FD
:1050A000C0F38530FFF7D6FE0546002800F09E804D
:1050B000AB6913F4807F61D15949019BD86800F036
:1050C0009DFD0346002840F099800198027B12F074
:1050D000010F04D04389032B70D9043B4381C37B68
:1050E000C3F38116002166F39F714C4E367866F348
:1050F0005D61C3F3440363F31851437BC3F30503BA
:1051000063F39331C068C0F3853363F30D2162F319
:10511000070100F0CFFD0346002856D02A691A6126
:10512000AA699A6174E000F00FFC024628B1029B64
:105130000168994205D19B7C1BB90198FFF764FC7B
:1051400011E001990023C868FFF752FD08B9044631
:1051500009E00198FFF758FC05E0916A013191627E
:105160001846FFF751FC204604B070BD916A01312A
:105170009162F5E7116A01311162F1E70198037B51
:1051800013F0010F04D04389032B0CD9043B438156
:10519000002201A92869FFF7E9F90128E3D0019865
:1051A000FFF732FCDFE7029A136A01331362FFF75D
:1051B0002BFCD8E70198FFF727FCD4E7029A136A83
:1051C00001331362FFF720FCCDE70198FFF71CFCC9
:1051D000C9E7029A136A01331362FFF715FCC2E7AD
:1051E0006FF00204BFE76FF00204BCE70C49019BBB
:1051F000D86800F003FD03460028DBD00198027B4D
:1052000012F0010F04D04289032AE2D9043A428104
:105210000199184600F0F4FBA5E700BFA03A012071
:1052200000FFFF3F08B54FF0FF342046FFF70AFFAD
:10523000FBE700B583B002460023019300910349C8
:105240000348FFF7AFFA03B05DF804FBBC96030810
:10525000255201082DE9F04F85B0D0F80080D8F82C
:105260000490D9F800707B1CC9F800304C8940F2DA
:10527000FA739C4273D80D460679FF2E04BFCE897F
:10528000C6F30416F60406F47806C7F30907631D8F
:10529000DB0847EA8323CA7BC2F3440243EA026382
:1052A00033430193022C28BF02245FFA84FBC868B1
:1052B00000F0E0FD8246688900F0D2FDCDF808A03C
:1052C000ADF80C0005F1100A5A4651460DF10E00DA
:1052D00020F01AFFD9F804900BF10603DBB202AA02
:1052E0000199D8F80800C847834648BB6B89A34298
:1052F0002ED9191B0B460829A8BF0823DBB21C4472
:10530000A4B2E21A5244C91A073148BF0731C90191
:1053100001F47F31E87BC0F3440041EA0061394386
:10532000314341F48021D8F80800C8470028DDD077
:10533000D8F81C300133C8F81C306FF00A0B0AE0B3
:10534000D8F81C300133C8F81C306FF00A0B02E0AB
:105350002846FFF759FB584605B0BDE8F08F6FF0BF
:10536000090BF8E72DE9F04706460C4691461F4623
:10537000DDF8208042466149204600F04FF900B335
:10538000054614F4802F18BF4FF0000A22D06B6836
:10539000013BC4F387249C4240F084806B602A88E0
:1053A000EC68D319A3EB0A0361898B4240F3848034
:1053B000F36A0133F3624146284600F0CFF800203B
:1053C00078E014F4802F3FD14146204600F0E6F803
:1053D000054698B3052F3DD9EB68002B43D0F36AFF
:1053E0000133F362EB68D9F80020DA60D5F80CA03D
:1053F000DAF80C0000F04AFDCAF80C00EB68B9F8C6
:1054000004205A81D5F80CA0BAF80A0000F02DFD4E
:10541000AAF80A00EB68B3F80AA040F2FA739A45BA
:1054200003D8FFF737FB824533D9336A0133336240
:105430004146284600F092F800203BE0336A0133F1
:1054400033624FF0FF3035E0F36A0133F3626FF0FF
:1054500001002FE0F36A0133F3624146284600F071
:105460007DF8002026E0B8F1000F0ED00020FFF7F5
:1054700061FAE8600028B5D1F36A0133F36241466E
:10548000284600F06BF8002014E00020FFF776FAC1
:10549000EFE700232B80C4F3872301336B604FF0C9
:1054A000060A74E74146284600F058F8F36A0133CB
:1054B000F3620020BDE8F08702F11000A7EB0A02BA
:1054C00009EB0A01204420F01FFE2B881F44A7EBA4
:1054D0000A07BFB22F80E8684389BB4201D0002091
:1054E000E8E742463146FFF76DFD0024EC60414697
:1054F000284600F033F82046DCE700BFFF03F81F22
:10550000C8B108B503460268C2B14168C9B14A686A
:10551000D2B1028A013A92B240F2F970824284BF5B
:1055200040F2FA721A8200220A60094ADA601846CA
:1055300000F0C6FD08BD6FF0010070476FF001007C
:10554000F8E76FF00100F5E76FF00100F2E700BF48
:105550005552010808B500F089F808BD10B5044699
:10556000C06810B181B1FFF72BFA0023E3602380FC
:10557000A360636163602374074B1B68013B06D41F
:10558000054A1360002010BDFFF73EFAEDE7024B1D
:1055900000221A60F6E700BFDCA900202DE9F843DD
:1055A0008046894629B100F056FA0746194C002575
:1055B0000DE000F043FA0746F8E749462046FFF7BA
:1055C000CDFF337C6BB101351834052D1ED0264636
:1055D000237C012BF5D16369FB1AB3F57A7FF2D9ED
:1055E000EBE70D4805EB450300EBC30301221A75F9
:1055F000C3F80C8000229A609F610368013340F871
:10560000043B05EB450500EBC50000E00020BDE8CC
:10561000F88300BFE0A90020DCA9002038B5114BB9
:10562000002406E000F00AFA0EE001341833052CDD
:1056300016D01D7C012DF8D19D6845400D42F4D156
:10564000002AEFD000F007FA074B04EB440203EB0B
:10565000C2029061043304EB440403EBC40000E095
:10566000002038BDE0A90020DCA90020014B18680B
:10567000704700BFDCA9002008B50846CB89C3F3FA
:105680000413064A1278934203D0FFF7BDF90020B5
:1056900008BD00220249FFF795FCF8E7A03A012077
:1056A000000000202DE9F0418AB004460F4616465E
:1056B0001D461B682449186821F0D6F800283ED002
:1056C0006168224A224B00290CBF90469846052E5D
:1056D00023D100238DF81C302B79FF2B24D10023FC
:1056E0008DF810306068A668361A04AB03932B68F7
:1056F0001B68029307AB019300974346154A314656
:105700002568284420F0EAFF002813DB864211DDDB
:10571000636818446060012012E033460E4A0A2193
:1057200007A820F0DBFFD7E70C4A0A2104A820F0E5
:10573000D5FFD7E74FF0FF33E360002000E0012002
:105740000AB0BDE8F08100BFC096030800900308CE
:10575000C8960308D4960308CC960308D09603088D
:1057600010B5202816D0A0F12004E4B2DE2C05D913
:105770003AB1052908D800F0FBF810BD6FF0010020
:10578000FBE76FF00100F8E76FF00100F5E76FF05D
:105790000100F2E7002AFAD000200146EBE72DE9EC
:1057A000F0478AB002AF80460D46642121F0BFF871
:1057B000044600F1080323F00703ADEB030D02AE2E
:1057C00002464146304621F09FF80023335507F149
:1057D0001C024249304621F0F6F8002400286FD020
:1057E000824600243E4EDFF80081DFF8009136E06B
:1057F00007F10C0300933B1D3A464146504620F00A
:10580000C1FF032802D1FF23BB603BE007F108037F
:10581000009307F10C033A464946504620F0B2FF88
:10582000032802D105237B602CE007F10C033A46E4
:105830002C49504620F0A6FF022802D000233B73DB
:1058400020E005237B60FF23BB601BE0013407F1F0
:105850001C022249002021F0B6F8824680B350464F
:1058600000F008FD01282BD907F10803019307F187
:105870000C0300933B1D3A463146504620F082FF10
:105880000428B5D10023BB7607F10C0000F004FC1E
:10589000024638681F2811D87968052915D8BB68D1
:1058A000FF2B15D8BAB1002DD0D1DBB2C9B2C0B22E
:1058B000FFF756FF0028C9D0044601E06FF001044D
:1058C00020462037BD46BDE8F0876FF00104F7E7BA
:1058D0006FF00104F4E76FF00104F1E7C8960308E4
:1058E000E096030808970308F0960308FC9603085F
:1058F00008B50021FFF753FF08BD08B50121FFF7E8
:105900004EFF08BD00B585B00090002301930291C1
:10591000039303706946034800F048F8039805B004
:105920005DF804FBA556010808B500F035F8FF2323
:10593000034A052103480078FFF712FF08BD00BFA6
:1059400000000020A03A0120084B53F830301BB172
:10595000064B03EBC0007047044BD3F8000100284E
:1059600003F5807318BF1846704700BF58AA00207F
:1059700010B421B1052903D06FF0010007E0202009
:10598000044941F8302001EBC000037100205DF8AC
:10599000044B704758AA002008B54FF484720021C8
:1059A000014820F0D9FB08BD58AA00202DE9F0419C
:1059B00006460F460024104D4FF0050802E0013462
:1059C000202C0DD055F83430002BF8D005EBC40353
:1059D0004246E1B23846B0470028F0D1BDE8F08138
:1059E000054BD3F80031002BF8D0044B00221146B0
:1059F0003846B047F2E700BF58AA002058AB002055
:105A000010B582B001900C4600F069F800280DDB5B
:105A1000019B186940B1002201A9FEF7A7FD0128EA
:105A200008D1019B00221A6102B010BD2046FEF78A
:105A3000EBFFF9E7019800F07DF9F5E710B51AF0F2
:105A400015F804461AF028F84FF47A7303FB04F3B0
:105A5000B3FBF0F010BD10B51AF008F804461AF0C8
:105A60001BF84FF47A7303FB04F3B3FBF0F010BDA3
:105A700010B519F0FBFF04461AF00EF8B4FBF0F075
:105A800010BD10B519F0F2FF04461AF005F8B4FB8A
:105A9000F0F010BD08B5FFF7EBFF044B1B680BB926
:105AA000024B1860014B1B68C01A08BD60AB002098
:105AB00030B583B0044600252A4601A9E068FEF708
:105AC00067FD012805D101980028F5D0FEF79CFF5D
:105AD000F2E7002003B030BD70470020704700B5EA
:105AE00083B0019158B1002201A9C068FEF73EFDC4
:105AF000013818BF4FF0FF3003B05DF804FB6FF0C2
:105B00000100F9E72DE9F0471C21264B187CFEF730
:105B1000BBFC254B186000283BD0181DFEF7BDFDCF
:105B2000002839D1FFF78AFF00F0FAFA00F0FEFAF8
:105B30001C4BDA7C1C49C2F13F0390FBF3F404FBDD
:105B40001303013213440B7201F10C00FEF7A5FDA3
:105B5000824620B14FF0FF3A5046BDE8F087114B26
:105B60001B7C002BF8D006460025DFF83C900D4F3B
:105B70004FF00408D9F800402C444146787CFEF7E9
:105B8000A7FCE06058B101361C353B7CB342F1DC28
:105B9000E2E74FF0FF3ADFE74FF0FF3ADCE74FF084
:105BA000FF3AD9E7A03A012064AB0020F8B5114BC9
:105BB0001B6803B9F8BD104B1B7C8BB10024254634
:105BC0000C4F0D4E04E001351C34337CAB4207D939
:105BD0003B682344D8680028F5D0FEF7C3FCF2E701
:105BE000044C2068FEF75EFC002323606360E360E2
:105BF0002372DFE764AB0020A03A012070B400EA12
:105C000001060D4B1D7CA5B10C4B1B68002203E067
:105C100001321C33AA4209D018461C88B4F5807F93
:105C2000F6D15C680C40B442F2D100E0002070BCB8
:105C300070470020FBE700BFA03A012064AB0020C2
:105C4000F8B506464FF0FF311748FEF76EFDC8B9AC
:105C50000146164B1B7C164A127C8AB11348076812
:105C6000013393FBF2F002FB1033C3EBC30407EBE9
:105C70008404657845B101319142F1D100240DE0F1
:105C800000240BE000240CE000226260A26022618C
:105C90006261267001226270044A13740248FEF7A2
:105CA0004DFD2046F8BD00BF68AB002064AB00206E
:105CB000A03A012070B506460D460020FFF7C0FF50
:105CC000044638B146608560FFF7B8FE6061204643
:105CD000FFF7EEFE204670BD38B518B30446437892
:105CE00013B90025284638BD4FF0FF311048FEF7A4
:105CF0001CFD0546C0B9002363702046FFF7D8FE9F
:105D0000206910B12378012B03D00948FEF716FD56
:105D1000E8E7A36913F4885FF7D0FEF723FC0023BC
:105D20002361F2E70025DDE76FF00205DAE700BF47
:105D300068AB002008B50121FFF7CEFF08BD2DE9B3
:105D4000F047364BDC69089F274300F0030000242E
:105D500060F39F741B7803F01F0363F3185401F082
:105D60001F0161F35D6402F03F0262F30D246FF3E3
:105D70000704002660F39F7661F3185663F35D66AF
:105D800062F393366FF3070617F0800F18BF27F002
:105D9000400717F0550F03D000242046BDE8F087D8
:105DA0004FF0FF311E48FEF7C0FC78BB1D4B93F847
:105DB00008801A4B93F813A00AF1010A5FFA8AFAD5
:105DC000184D4FF47C292B7A0133DBB22B724345FB
:105DD0001ED03F2B88BF85F808A02B7A03F03F0325
:105DE00063F30D2663F3933449462046FFF706FF1D
:105DF0000028E8D131462046FFF75CFF04460848FA
:105E0000FEF79CFC002CC8D0A761C6E70024C4E7BD
:105E10000348FEF793FC0024BFE700BFA03A01202F
:105E200070AB002064AB00204068C0F38530704741
:105E3000407900F03F007047C088C0F304107047FD
:105E4000C079C0F34400704700797047024B1B7C57
:105E50000360024B18687047A03A012064AB002031
:105E6000030243EA102080B27047030243EA102085
:105E700080B27047030643EA1063020202F47F0215
:105E80001343000A00F47F4018437047030643EAB7
:105E90001063020202F47F021343000A00F47F4001
:105EA0001843704710B404460A0A02F47F4242EADB
:105EB0001162030203F47F0343EA0063080200F463
:105EC0007F000243200A00F47F40034342EA01605E
:105ED00043EA14615DF8044B704710B404460A0AA3
:105EE00002F47F4242EA1162030203F47F0343EAB1
:105EF0000063080200F47F000243200A00F47F40A0
:105F0000034342EA016043EA14615DF8044B7047C1
:105F1000030243EA102080B270477047030243EA4D
:105F2000102080B270477047030643EA10630202F4
:105F300002F47F021343000A00F47F4018437047C5
:105F40007047030643EA1063020202F47F02134320
:105F5000000A00F47F4018437047704710B40446AD
:105F60000A0A02F47F4242EA1162030203F47F0349
:105F700043EA0063080200F47F000243200A00F4B1
:105F80007F40034342EA016043EA14615DF8044B39
:105F90007047704710B404460A0A02F47F4242EA8E
:105FA0001162030203F47F0343EA0063080200F472
:105FB0007F000243200A00F47F40034342EA01606D
:105FC00043EA14615DF8044B7047704782B08DED71
:105FD000010A019B1A0642EA1362190201F47F01C9
:105FE0000A431B0A03F47F43134300EE103A02B046
:105FF000704782B08DED010A019B1A0642EA1362D6
:10600000190201F47F010A431B0A03F47F4313437F
:1060100000EE103A02B0704730B453EC102B10EE83
:10602000104A1D461A0A02F47F4242EA1362230212
:1060300003F47F0343EA0463290201F47F010A4366
:10604000210A01F47F410B4342EA056043EA1461EF
:1060500041EC100B30BC704730B453EC102B10EEF9
:10606000104A1D461A0A02F47F4242EA13622302D2
:1060700003F47F0343EA0463290201F47F010A4326
:10608000210A01F47F410B4342EA056043EA1461AF
:1060900041EC100B30BC704770B5084B1C6854B114
:1060A00005460A2632462946206820F0F9FB10B141
:1060B000E46B002CF6D1204670BD00BF78AB002009
:1060C000F8B505460023C363114B1C687CB18442BC
:1060D00014D007680A2632462168384620F0E0FBD3
:1060E00090B1E36B3BB19D420BD01C46F3E7084BEC
:1060F00018600020F8BDE5630020FBE76FF00600A4
:10610000F8E76FF00600F5E76FF00600F2E700BF72
:1061100078AB0020014B1868704700BF78AB0020B7
:10612000014B1860704700BF4000002008B50248CE
:1061300020F0B0FA08BD00BF4000002000207047EA
:10614000002070470020704708B500F00F03013BA6
:10615000072B21D8DFE803F022041416181A1C1E9E
:106160001F2200F0F00030281FD019D810281ED0B0
:10617000202814BF002102210E4820F073FA08BD28
:106180002022EEE72122ECE72222EAE72322E8E7B9
:106190002422E6E72522E4E70022E2E71E22E0E7E8
:1061A000402814BF00210421E6E70321E4E7012190
:1061B000E2E700BF109703080000000000000000A5
:1061C00001F0FF01102A2BDB10F0070F08D010F8A8
:1061D000013B013A8B422DD010F0070F42B3F6D1AC
:1061E000F0B441EA012141EA014122F007047FF0C5
:1061F00000070023F0E80256083C85EA010586EA1C
:10620000010685FA47F5A3FA87F586FA47F6A5FA57
:1062100087F68EB9EED1F0BC01F0FF0102F0070263
:1062200032B110F8013B013A83EA010313B1F8D10E
:106230000020704701387047002D06BF35460338EF
:10624000073815F0010F07D1013015F4807F02BF28
:10625000013015F4C03F0130F0BC0138704700BF79
:1062600010F8012B11F8013B012A28BF9A42F7D000
:10627000D01A7047034613F8012B002AFBD1181AD5
:106280000138704781F0004102E000BF83F0004315
:1062900030B54FEA41044FEA430594EA050F08BFC1
:1062A00090EA020F1FBF54EA000C55EA020C7FEA85
:1062B000645C7FEA655C00F0E2804FEA5454D4EB02
:1062C0005555B8BF6D420CDD2C4480EA020281EACC
:1062D000030382EA000083EA010180EA020281EA04
:1062E0000303362D88BF30BD11F0004F4FEA013156
:1062F0004FF4801C4CEA113102D0404261EB410165
:1063000013F0004F4FEA03334CEA133302D05242EA
:1063100063EB430394EA050F00F0A780A4F10104A6
:10632000D5F1200E0DDB02FA0EFC22FA05F28018E0
:1063300041F1000103FA0EF2801843FA05F35941C6
:106340000EE0A5F120050EF1200E012A03FA0EFC45
:1063500028BF4CF0020C43FA05F3C01851EBE3716F
:1063600001F0004507D54FF0000EDCF1000C7EEB8C
:1063700000006EEB0101B1F5801F1BD3B1F5001FCA
:106380000CD349085FEA30004FEA3C0C04F10104E9
:106390004FEA445212F5800F80F09A80BCF1004F12
:1063A00008BF5FEA500C50F1000041EB045141EA94
:1063B000050130BD5FEA4C0C404141EB0101013C5D
:1063C00028BFB1F5801FE9D291F0000F04BF01464C
:1063D0000020B1FA81F308BF2033A3F10B03B3F11E
:1063E00020020CDA0C3208DD02F1140CC2F10C02AE
:1063F00001FA0CF021FA02F10CE002F11402D8BF0C
:10640000C2F1200C01FA02F120FA0CFCDCBF41EAD7
:106410000C019040E41AA2BF01EB0451294330BDA6
:106420006FEA04041F3C1CDA0C340EDC04F1140483
:10643000C4F1200220FA04F001FA02F340EA03005A
:1064400021FA04F345EA030130BDC4F10C04C4F1A0
:10645000200220FA02F001FA04F340EA0300294680
:1064600030BD21FA04F0294630BD94F0000F83F4CA
:10647000801306BF81F480110134013D4EE77FEAAD
:10648000645C18BF7FEA655C29D094EA050F08BFF9
:1064900090EA020F05D054EA000C04BF19461046DA
:1064A00030BD91EA030F1EBF0021002030BD5FEA1E
:1064B000545C05D14000494128BF41F0004130BD46
:1064C00014F580043CBF01F5801130BD01F000459A
:1064D00045F0FE4141F470014FF0000030BD7FEA0D
:1064E000645C1ABF194610467FEA655C1CBF0B4608
:1064F000024650EA013406BF52EA033591EA030F1F
:1065000041F4002130BD00BF90F0000F04BF002116
:10651000704730B54FF4806404F132044FF0000549
:106520004FF0000150E700BF90F0000F04BF0021C2
:10653000704730B54FF4806404F1320410F0004528
:1065400048BF40424FF000013EE700BF42004FEA23
:10655000E2014FEA31014FEA02701FBF12F07F43A0
:1065600093F07F4F81F06051704732F07F4208BF57
:10657000704793F07F4F04BF41F40021704730B55E
:106580004FF4607401F0004521F000411CE700BFAA
:1065900050EA010208BF704730B54FF000050AE02D
:1065A00050EA010208BF704730B511F0004502D52E
:1065B000404261EB41014FF4806404F132045FEA30
:1065C000915C3FF4D8AE4FF003025FEADC0C18BFD9
:1065D00003325FEADC0C18BF033202EBDC02C2F1CB
:1065E000200300FA03FC20FA02F001FA03FE40EA5D
:1065F0000E0021FA02F11444BDE600BF4FEA410249
:10660000B2F1E04324BFB3F5001CDCF1FE5C0DD910
:1066100001F0004C4FEAC0024CEA5070B2F1004F5A
:1066200040EB830008BF20F00100704711F0804F5D
:1066300021D113F13872BCBF01F00040704741F422
:1066400080114FEA5252C2F11802C2F1200C10FA26
:106650000CF320FA02F018BF40F001004FEAC1230A
:106660004FEAD32303FA0CFC40EA0C0023FA02F3AE
:106670004FEA4303CCE77FEA625307D150EA013384
:106680001EBF4FF0FE4040F44000704701F0004054
:1066900040F0FE4040F40000704700BF80F0004032
:1066A00002E000BF81F0004142001FBF5FEA4103EA
:1066B00092EA030F7FEA226C7FEA236C6AD04FEAEA
:1066C0001262D2EB1363C1BFD2184140484041402F
:1066D000B8BF5B42192B88BF704710F0004F40F4E1
:1066E000000020F07F4018BF404211F0004F41F4FD
:1066F000000121F07F4118BF494292EA030F3FD0C9
:10670000A2F1010241FA03FC10EB0C00C3F12003DB
:1067100001FA03F100F0004302D5494260EB40006A
:10672000B0F5000F13D3B0F1807F06D340084FEAD5
:10673000310102F10102FE2A51D2B1F1004F40EBCA
:10674000C25008BF20F0010040EA03007047490032
:1067500040EB0000013A28BFB0F5000FEDD2B0FACF
:1067600080FCACF1080CB2EB0C0200FA0CF0AABFF2
:1067700000EBC25052421843BCBFD0401843704790
:1067800092F0000F81F4000106BF80F40000013296
:10679000013BB5E74FEA41037FEA226C18BF7FEA6D
:1067A000236C21D092EA030F04D092F0000F08BFAF
:1067B0000846704790EA010F1CBF0020704712F096
:1067C0007F4F04D1400028BF40F00040704712F1D5
:1067D00000723CBF00F50000704700F0004343F03A
:1067E000FE4040F4000070477FEA226216BF084670
:1067F0007FEA23630146420206BF5FEA412390EA33
:10680000010F40F4800070474FF0000304E000BF28
:1068100010F0004348BF40425FEA000C08BF7047D9
:1068200043F0964301464FF000001CE050EA01029D
:1068300008BF70474FF000030AE000BF50EA0102B2
:1068400008BF704711F0004302D5404261EB41019F
:106850005FEA010C02BF84460146002043F0B643C4
:1068600008BFA3F18053A3F50003BCFA8CF2083AE9
:10687000A3EBC25310DB01FA02FC634400FA02FCF2
:10688000C2F12002BCF1004F20FA02F243EB0200F9
:1068900008BF20F00100704702F1200201FA02FC5B
:1068A000C2F1200250EA4C0021FA02F243EB02004E
:1068B00008BF20EADC7070477BB972B90029BEBFFF
:1068C00000204FF0004106E008BF00281CBF6FF019
:1068D00000414FF0FF3000F0B9B9ADF1080C6DE99F
:1068E00004CE002909DB002B1ADB00F04DF8DDF89F
:1068F00004E0DDE9022304B07047404261EB41014E
:10690000002B1BDB00F040F8DDF804E0DDE902239A
:1069100004B0404261EB4101524263EB43037047D4
:10692000524263EB430300F02FF8DDF804E0DDE9A9
:10693000022304B0404261EB41017047524263EBD5
:10694000430300F021F8DDF804E0DDE9022304B0A0
:10695000524263EB4303704753B94AB9002908BF59
:1069600000281CBF4FF0FF314FF0FF3000F06EB930
:10697000ADF1080C6DE904CE00F006F8DDF804E096
:10698000DDE9022304B070472DE9F047089D044675
:106990008C46002B40F083808A42174647D9B2FAD2
:1069A00082F242B1C2F1200024FA00F091409740F7
:1069B00040EA010C94404FEA1748230CBCFBF8F660
:1069C0001FFA87FE08FB16C143EA014306FB0EF1DE
:1069D000994209D9FB1806F1FF3080F019819942DC
:1069E00040F21681023E3B445B1AA4B2B3FBF8F0BE
:1069F00008FB103344EA034400FB0EFEA64509D908
:106A00003C1900F1FF3380F00581A64540F2028178
:106A100002383C4440EA0640A4EB0E0400261DB1B7
:106A2000D4400023C5E900433146BDE8F08702B9F0
:106A3000FFDEB2FA82F2002A50D1CB1B4FEA174E8A
:106A40001FFA87F80126B3FBFEFC210C0EFB1C335A
:106A500041EA034108FB0CF38B4207D979180CF18A
:106A6000FF3002D28B4200F2E9808446C91AA3B2F9
:106A7000B1FBFEF00EFB101143EA014408FB00F8E5
:106A8000A04507D93C1900F1FF3302D2A04500F21E
:106A9000D9801846A4EB080440EA0C40BFE78B42BB
:106AA00009D9002D00F0B1800026C5E9000130466B
:106AB0003146BDE8F087B3FA83F6002E4AD18B4207
:106AC00002D3824200F2B880841A61EB03010120F4
:106AD0008C46002DA8D0C5E9004CA5E7C2F12003E3
:106AE00020FA03F6974001FA02F04FEA174ED94018
:106AF0003043030CB1FBFEF61FFA87F80EFB1611AC
:106B000043EA014306FB08F1994204FA02F409D969
:106B1000FB1806F1FF3C80F08D80994240F28A809C
:106B2000023E3B445B1A81B2B3FBFEF00EFB103316
:106B300041EA034100FB08F38B4207D9791800F1C1
:106B4000FF3C73D28B4271D902383944CB1A40EAE8
:106B5000064678E7C6F1200C03FA06F422FA0CF395
:106B60001C4320FA0CF701FA06F34FEA144E21FAFF
:106B70000CF11F433B0CB1FBFEF91FFA84F80EFB2E
:106B8000191143EA014109FB08FA8A4502FA06F2A3
:106B900000FA06F308D9611809F1FF3048D28A4596
:106BA00046D9A9F102092144A1EB0A01BFB2B1FB08
:106BB000FEF00EFB101147EA014700FB08F8B8454C
:106BC00007D9E71900F1FF312ED2B8452CD9023888
:106BD000274440EA0940A7EB0807A0FB02894F457C
:106BE000C64649461AD317D05DB1B3EB0E0267EB28
:106BF000010707FA0CFCF2404CEA0202F740C5E933
:106C0000002700263146BDE8F0872E4628460BE7D0
:106C10000646E9E61846FDE64345E5D2B8EB020E26
:106C200069EB04010138DFE70846D2E760468DE7EB
:106C30008146B9E7664675E730464AE7ACF1020C93
:106C4000394413E702383C4424E700BF704700BFD3
:106C500070B582B019F022FE044620B1404D05F116
:106C60007C06404B1DE00BF053FF04460028F5D195
:106C70000BF064FF04460028F0D118F09BFE0028BA
:106C8000ECD072B6384B0193019808F03FFE01F04A
:106C90002BFB07F02BFEFCE7B54207D055F8043F6D
:106CA00023B1002CF8D198470446F5E72F4D05F1A4
:106CB0007C062F4B04E0AE4207D055F8043F23B1C9
:106CC000002CF8D198470446F5E72A4D05F17C06DB
:106CD000294B04E0B54207D055F8043F23B1002CFE
:106CE000F8D198470446F5E7244D05F17C06244B7E
:106CF00004E0B54207D055F8043F23B1002CF8D189
:106D000098470446F5E71F4D05F17C061E4B04E04D
:106D1000AE4207D055F8043F23B1002CF8D1984774
:106D20000446F5E74CB1019472B6019808F0EEFD07
:106D300001F0DAFA07F0DAFDFCE718F063FE20B99B
:106D40006424204618F0C2FFFBE772B60F4B019394
:106D5000019808F0DBFD01F0C7FA07F0C7FDFCE77A
:106D6000148B030865A501083F807F00148A03087F
:106D7000FDE80108948A030809E90108948B0308D7
:106D80004DF90108148C030849F7010890807F0031
:106D90000D4B1A780D4B1B6802EB420153F8213062
:106DA00003EBC3030A4951F822201344094A52F85D
:106DB000230038B1084B1A8840F6B83303FB02F3BE
:106DC000B3FBF0F0704700BFC4AC0020F4370120E3
:106DD0007CAB00207CAC0020AA75FF1F10B582B0F0
:106DE0004822002115481FF0B7F9154B0021196002
:106DF0005960242213481FF0AFF9134B11221A7067
:106E0000124B1A6801231248D9B2146984420ED079
:106E100001330C32092BF7D10E4B019372B6019856
:106E200008F074FD01F060FA07F060FDFCE7064B26
:106E300019701029F0D8002002B010BD7CAC0020E1
:106E4000A0AB00207CAB0020C4AC0020F4370120B4
:106E5000010000809980071E2DE9F04389B0524B54
:106E60001B681A682AB9DC6E74B91A4660334F4839
:106E70001BE04F4B019372B6019808F047FD01F0FB
:106E800033FA07F033FDFCE74A4B019372B60198E1
:106E900008F03CFD01F028FA07F028FDFCE7416806
:106EA000013141600C3293420FD0D1680129F6D0F4
:106EB0000029F7D1404B019372B6019808F026FDE6
:106EC00001F012FA07F012FDFCE70023029303938E
:106ED00004930593069307933848394A82664FF422
:106EE0002012C26603674367012282670821C167D7
:106EF00080F8803080F881202C494968C0F88410DF
:106F000080F88830C0F88C20C0F89030C0F89430F9
:106F100080F89820C0F89C3080F8A03068300EF0DF
:106F2000B1FE284B002818BF1C467F23059304237D
:106F3000069300230793244E0C250127DFF8949035
:106F4000DFF89C8015E0214C596802911168204AB5
:106F500052F8212003929B68049302A948460FF03F
:106F6000E7F8002818BF444601370C3504366C2D6D
:106F70000BD00D4B1A6853195259012AF5D13246DC
:106F800031680029DFD13760DEE77F2111480FF03B
:106F90000BFC38B914B9104B01221A70204609B005
:106FA000BDE8F0830D4CF9E7F4370120A0AB0020D9
:106FB000B180021EB680031EC680041EACAB00204A
:106FC00000000450EA00001E80AB00200001001EFB
:106FD000948C030814AC0020A8AB00200F01051E00
:106FE0000701051E00B583B00E4BD3F8B8306BB166
:106FF0000C48D0F884200C4968300FF035FB00288D
:107000000CBF0020022003B05DF804FB074B019386
:1070100072B6019808F07AFC01F066F907F066FC98
:10702000FCE700BFACAB0020A4AC00203001061E82
:10703000F0B583B0424B1B78012B3DD105460C4681
:107040004B1EDBB2072B42D801EB41039F003D4AA8
:10705000166806EB83035B683B4A934242D03B4A87
:10706000934264D0FFF794FE07EE900AF35903EBC6
:10707000C302374951F824100A44364901EB820211
:1070800092ED007AB8EE477AF8EE677A27EE277A23
:10709000314A682101FB03239A68920840F6FF7386
:1070A000D34007EE903AF8EE677AC7EE276AC5ED4F
:1070B000006A002003B0F0BD284B019372B601981E
:1070C00008F024FC01F010F907F010FCFCE7244B59
:1070D000019372B6019808F019FC01F005F907F068
:1070E00005FCFCE7FFF754FE1E4B1988F35903EB30
:1070F000C303174A52F824201344164A52F8233087
:1071000003FB00F3184AA2FB0323C1EB9312642391
:1071100003FB02F3154A1288521A93FBF2F31E3353
:1071200007EE903AF8EEE77AC5ED007AC1E7FFF78F
:107130002FFE07EE900AF8EE677AC5ED007AB8E701
:10714000A8AB0020F4370120000052C701000080E6
:107150007CAB00207CAC0020ACAB00203C01061EC8
:107160003D81051EA875FF1FF1197605CA75FF1F21
:10717000F0B583B01B4C1C4A02F10C070023012020
:107180001A491B4E1D4654F804CBBCF1000F1CD00D
:10719000136011F803C0BCF1000F0BD1C85446F8BE
:1071A000235001330432BA42EDD1012B0FD100201C
:1071B00003B0F0BD0F4B019372B6019808F0A6FB27
:1071C00001F092F807F092FBFCE71060EAE70A4B47
:1071D000019372B6019808F099FB01F085F807F069
:1071E00085FBFCE7D88C0308C8AC0020DCAD002090
:1071F000B0AD0020708082067E00820610B584B09B
:10720000D8B10B460246022822D83F4951F8201037
:1072100049B33E4850F82220002A2FD13C4A127828
:10722000012A36D03B4B039372B6039808F06EFBED
:1072300001F05AF807F05AFBFCE7374B039372B69C
:10724000039808F063FB01F04FF807F04FFBFCE7F1
:10725000324B039372B6039808F058FB01F044F8E0
:1072600007F044FBFCE72E4B039372B6039808F03B
:107270004DFB01F039F807F039FBFCE7294B03938C
:1072800072B6039808F042FB01F02EF807F02EFBCF
:10729000FCE725480160254A190102EB0313525807
:1072A0004260002282605968C16099680161DB68B0
:1072B00043610276012343768376C3760377427770
:1072C0000FF0C3FA18B11A4C204604B010BD19498A
:1072D000082300931823C02288180BF0B3FC04463F
:1072E0000028F1D148F60B710F480FF071FD48B935
:1072F0000D480FF0B8FB18B9054B02221A70E3E7EE
:107300000D4CE1E70D4CDFE7D88C0308C8AC00203A
:10731000DCAD0020AD808206A9008306AA8083062A
:10732000AB008406AC008106B4AD0020E48C0308F9
:10733000CA808006D4AC0020E8808006E080800609
:1073400030B589B021B30D46CA68082A2BD8002869
:1073500034D002283DD8464951F82010002943D0A6
:10736000444951F82030002B49D1434B1B78022B64
:1073700050D12B6813F0604457D0404B009372B645
:10738000009808F0C3FA00F0AFFF07F0AFFAFCE78F
:107390003B4B009372B6009808F0B8FA00F0A4FFD7
:1073A00007F0A4FAFCE7374B009372B6009808F098
:1073B000ADFA00F099FF07F099FAFCE7324B009321
:1073C00072B6009808F0A2FA00F08EFF07F08EFA6D
:1073D000FCE72E4B009372B6009808F097FA00F085
:1073E00083FF07F083FAFCE7294B009372B60098FD
:1073F00008F08CFA00F078FF07F078FAFCE7254BEC
:10740000009372B6009808F081FA00F06DFF07F063
:107410006DFAFCE7204B009372B6009808F076FAFC
:1074200000F062FF07F062FAFCE700210791297A79
:10743000002914BF21460421049103936B68029331
:1074400000230593069215480FF00EFC18B9144C52
:10745000204609B030BD01AB05F1100202A90F486A
:107460000FF060FB0F4B002818BF1C46F0E700BF71
:10747000D88C0308C8AC0020DCAD0020328188061F
:107480002B0186062C8184062D0183062E8183061E
:107490002F0184063001810631818206B4AD0020BF
:1074A000550185064E81850610B582B0C8B1022807
:1074B00022D8274A52F820204AB3264A52F82040C0
:1074C000002C2FD1244B1B78022B36D0234B019359
:1074D00072B6019808F01AFA00F006FF07F006FAF3
:1074E000FCE71F4B019372B6019808F00FFA00F009
:1074F000FBFE07F0FBF9FCE71A4B019372B601980B
:1075000008F004FA00F0F0FE07F0F0F9FCE7164B83
:10751000019372B6019808F0F9F900F0E5FE07F062
:10752000E5F9FCE7114B019372B6019808F0EEF90A
:1075300000F0DAFE07F0DAF9FCE707210C480FF05B
:107540006BFB0C4B00280CBF2046184602B010BD48
:10755000D88C0308C8AC0020DCAD00206181820615
:107560005D0183065E8183065F01840660018106FA
:10757000B4AD00206B818A0610B582B0F0B10C4624
:10758000022826D82E4A52F82020002A2CD02D4A34
:1075900052F82030002B32D12B4B1B78022B39D1E3
:1075A000002942D000230B6028480FF05DFB032820
:1075B00004BF01232360002002B010BD244B0193BF
:1075C00072B6019808F0A2F900F08EFE07F08EF96D
:1075D000FCE7204B019372B6019808F097F900F090
:1075E00083FE07F083F9FCE71B4B019372B6019809
:1075F00008F08CF900F078FE07F078F9FCE7174BFB
:10760000019372B6019808F081F900F06DFE07F061
:107610006DF9FCE7124B019372B6019808F076F908
:1076200000F062FE07F062F9FCE70E4B019372B6C0
:10763000019808F06BF900F057FE07F057F9FCE7E6
:10764000D88C0308C8AC0020DCAD0020B4AD00200D
:1076500073018306748183067501840676018106B1
:10766000778182067801860610B582B0C8B10C46D3
:10767000022821D82F4A52F8202042B32E4A52F82D
:107680002030002B2ED12D4B1B78022B35D1002919
:107690003ED02B480BF026FB002844D1294802B0ED
:1076A00010BD294B019372B6019808F02FF900F034
:1076B0001BFE07F01BF9FCE7244B019372B60198FF
:1076C00008F024F900F010FE07F010F9FCE7204B59
:1076D000019372B6019808F019F900F005FE07F061
:1076E00005F9FCE71B4B019372B6019808F00EF9FF
:1076F00000F0FAFD07F0FAF8FCE7174B019372B6B9
:10770000019808F003F900F0EFFD07F0EFF8FCE74F
:10771000124B019372B6019808F0F8F800F0E4FDFE
:1077200007F0E4F8FCE71822214605480BF070FB4F
:10773000B5E700BFD88C0308C8AC0020DCAD002042
:1077400094AD00209E0187068B0183068C81830601
:107750008D0184068E0181068F8182069001860646
:1077600000B583B0C8B1022822D8264A52F820209A
:107770004AB3254A52F82030002B2FD1234B1B78D7
:10778000022B36D0224B019372B6019808F0BEF856
:1077900000F0AAFD07F0AAF8FCE71E4B019372B6B1
:1077A000019808F0B3F800F09FFD07F09FF8FCE7A0
:1077B000194B019372B6019808F0A8F800F094FDF7
:1077C00007F094F8FCE7154B019372B6019808F0A6
:1077D0009DF800F089FD07F089F8FCE7104B019354
:1077E00072B6019808F092F800F07EFD07F07EF87E
:1077F000FCE70C480BF076FA003818BF012003B004
:107800005DF804FBD88C0308C8AC0020DCAD002078
:10781000AA818206A6018306A7818306A8018406A1
:10782000A901810694AD002000B583B088B102287B
:107830001AD8234A52F820200AB3224A52F820309C
:1078400043BB214B1B78022B2FD10E2003B05DF8D8
:1078500004FB1E4B019372B6019808F057F800F034
:1078600043FD07F043F8FCE7194B019372B601980A
:1078700008F04CF800F038FD07F038F8FCE7154B3D
:10788000019372B6019808F041F800F02DFD07F061
:107890002DF8FCE7104B019372B6019808F036F80A
:1078A00000F022FD07F022F8FCE70C4B019372B6C2
:1078B000019808F02BF800F017FD07F017F8FCE727
:1078C000D88C0308C8AC0020DCAD0020BC018306C6
:1078D000BD818306BE018406BF018106C081820688
:1078E0002DE9F0418CB09DF84880F0B10F46154667
:1078F0001C46022824D8664A52F820205AB3654A0A
:1079000052F82060002E31D1634B1B78022B38D106
:107910000D2941D9614B019372B6019807F0F6FF2A
:1079200000F0E2FC06F0E2FFFCE75D4B019372B66B
:10793000019807F0EBFF00F0D7FC06F0D7FFFCE75B
:10794000584B019372B6019807F0E0FF00F0CCFCB1
:1079500006F0CCFFFCE7544B019372B6019807F098
:10796000D5FF00F0C1FC06F0C1FFFCE74F4B0193CF
:1079700072B6019807F0CAFF00F0B6FC06F0B6FF39
:10798000FCE74B4B019372B6019807F0BFFF00F084
:10799000ABFC06F0ABFFFCE72822002102A81EF09A
:1079A000DBFB01230A93B8F1000F22D115F0604FE1
:1079B00009D114F0604F11D1ED0045F00405E40049
:1079C00044F004041CE03B4B019372B6019807F0AD
:1079D0009DFF00F089FC06F089FFFCE7364B019320
:1079E00072B6019807F092FF00F07EFC06F07EFF71
:1079F000FCE7B8F1010F1AD000230A93344635464C
:107A00002B0C0293ADB20395230C0493A4B20594FE
:107A100000230693079708930123099327480FF043
:107A200050F828B3264E30460CB0BDE8F08125F45E
:107A3000FF6323F0070383B924F4FF6323F00703F4
:107A4000002BDDD01F4B019372B6019807F05EFF4B
:107A500000F04AFC06F04AFFFCE71B4B019372B6AC
:107A6000019807F053FF00F03FFC06F03FFFFCE7F2
:107A700002A912480EF078FF38B910480EF0F3FF53
:107A8000124B002818BF1E46CDE7114ECBE700BFB2
:107A9000D88C0308C8AC0020DCAD0020CD018806DE
:107AA000C8018306C9818306CA018406CB01810609
:107AB000CC818206DF818806E0018906B4AD002012
:107AC00002828006E9018906E88188061182800623
:107AD0000982890600B583B090B102281BD8244AD8
:107AE00052F8202012B3234A52F820304BBB224BCD
:107AF0001B78002B30D0214B186803B05DF804FBD5
:107B00001F4B019372B6019807F000FF00F0ECFBE9
:107B100006F0ECFEFCE71B4B019372B6019807F0F0
:107B2000F5FE00F0E1FB06F0E1FEFCE7164B0193E9
:107B300072B6019807F0EAFE00F0D6FB06F0D6FE1A
:107B4000FCE7124B019372B6019807F0DFFE00F0DC
:107B5000CBFB06F0CBFEFCE70D4B019372B6019810
:107B600007F0D4FE00F0C0FB06F0C0FEFCE700BF4B
:107B7000D88C0308C8AC0020DCAD0020B0AD0020DC
:107B80004702830648828306490284064A02810628
:107B90004B82820600B583B098B102281CD8244AD3
:107BA00052F820201AB3234A52F8203053BB224BFC
:107BB0001B78002B31D0214B00221A6003B05DF8F6
:107BC00004FB1F4B019372B6019807F09FFE00F073
:107BD0008BFB06F08BFEFCE71A4B019372B6019803
:107BE00007F094FE00F080FB06F080FEFCE7164BE9
:107BF000019372B6019807F089FE00F075FB06F05C
:107C000075FEFCE7114B019372B6019807F07EFEFA
:107C100000F06AFB06F06AFEFCE70D4B019372B6BA
:107C2000019807F073FE00F05FFB06F05FFEFCE7D3
:107C3000D88C0308C8AC0020DCAD0020B0AD00201B
:107C40005402830655828306560284065702810633
:107C50005882820600B583B0B1B10A46F8B1022855
:107C600028D82A4951F8201000292ED0284951F847
:107C70002030002B34D1274B1B78002B3BD0264BD8
:107C80001A6003B05DF804FB244B019372B60198AF
:107C900007F03CFE00F028FB06F028FEFCE7204B36
:107CA000019372B6019807F031FE00F01DFB06F05B
:107CB0001DFEFCE71B4B019372B6019807F026FEF0
:107CC00000F012FB06F012FEFCE7174B019372B6B0
:107CD000019807F01BFE00F007FB06F007FEFCE72B
:107CE000124B019372B6019807F010FE00F0FCFAF7
:107CF00006F0FCFDFCE70E4B019372B6019807F00D
:107D000005FE00F0F1FA06F0F1FDFCE7D88C03085F
:107D1000C8AC0020DCAD0020E4AD00207B028A0668
:107D20007C0283067D8283067E0284067F028106B2
:107D30008082820600B583B0B1B10A46F8B102284C
:107D400028D82A4951F8201000292ED0284951F866
:107D50002030002B34D1274B1B78002B3BD0264BF7
:107D60001A6003B05DF804FB244B019372B60198CE
:107D700007F0CCFD00F0B8FA06F0B8FDFCE7204BA8
:107D8000019372B6019807F0C1FD00F0ADFA06F05C
:107D9000ADFDFCE71B4B019372B6019807F0B6FDF1
:107DA00000F0A2FA06F0A2FDFCE7174B019372B6B1
:107DB000019807F0ABFD00F097FA06F097FDFCE79D
:107DC000124B019372B6019807F0A0FD00F08CFAF7
:107DD00006F08CFDFCE70E4B019372B6019807F09C
:107DE00095FD00F081FA06F081FDFCE7D88C0308D0
:107DF000C8AC0020DCAD0020E0AD002089028A067E
:107E00008A0283068B8283068C0284068D02810699
:107E10008E82820610B58EB0E8B10446022825D8BD
:107E20004E4A52F8202062B34D4A52F82020002AD0
:107E300032D14C4A1278022A39D1002942D04B1E45
:107E4000052B00F25781DFE813F048004C00550184
:107E50004C004E00A700444B079372B6079807F0FA
:107E600055FD00F041FA06F041FDFCE73F4B07935A
:107E700072B6079807F04AFD00F036FA06F036FDB4
:107E8000FCE73B4B079372B6079807F03FFD00F005
:107E90002BFA06F02BFDFCE7364B079372B60798DA
:107EA00007F034FD00F020FA06F020FDFCE7324B2D
:107EB000079372B6079807F029FD00F015FA06F04F
:107EC00015FDFCE72D4B079372B6079807F01EFDD2
:107ED00000F00AFA06F00AFDFCE7294B1B6803B123
:107EE00098470EB010BD05AB07AA002125480EF03B
:107EF000D2FEB0B9079B0293089B01930B9B04939E
:107F0000099B043B18BF01238DF80C301E480AF072
:107F100007FF88B91D4B1B68002BE2D0204698470D
:107F2000DFE772B61A4B0093009807F0EFFC00F001
:107F3000DBF906F0DBFCFCE7182201A912480AF085
:107F400005FF0028E6D072B6124B0093009807F0A8
:107F5000DDFC00F0C9F906F0C9FCFCE7D88C030889
:107F6000C8AC0020DCAD002097028306988283060F
:107F7000990284069A0281069B8282069C028C06E4
:107F8000E4AD0020B4AD002094AD0020E0AD0020B1
:107F9000BC827F00D1827F005C4B1B68002BA0D18C
:107FA0005B4B5B6A13F0010F02D0584B01221A6041
:107FB000574B5B6A13F0020F04D0544A136843F026
:107FC00002031360524B5B6A13F0040F04D04F4A54
:107FD000136843F0040313604D4B5B6A13F0080F02
:107FE00004D04A4A136843F008031360484B5B6AA5
:107FF00013F0100F04D0454A136843F010031360C8
:10800000434B5B6A13F0200F04D0404A136843F0DF
:10801000200313603E4B5B6A13F0400F04D03B4AD1
:10802000136843F040031360394B5B6A13F0800F11
:1080300004D0364A136843F080031360344B5B6A04
:1080400013F4807F04D0314A136843F480731360C3
:108050002F4B5B6A13F4007F04D02C4A136843F45F
:10806000007313602A4B5B6A13F4806F04D0274AB5
:10807000136843F400731360254B5B6A13F4006FBD
:1080800004D0224A136843F480631360204B5B6A78
:1080900013F4805F04D01D4A136843F40063136037
:1080A0001B4B5B6A13F4005F04D0184A136843F457
:1080B00080631360164B5B6A13F4804F04D0134A3D
:1080C000136843F400631360114B5B6A13F4004FB1
:1080D00004D00E4A136843F4806313600C4B5B6A50
:1080E00013F4803F3FF4FDAE084A136843F4006385
:1080F0001360F6E672B6074B0793079807F006FC85
:1081000000F0F2F806F0F2FBFCE700BFB0AD002093
:10811000B4AD002045837F0010B582B0E0B10B46BE
:10812000022824D8324951F8201059B3314951F866
:108130002020002A31D1304A1278022A38D1002B6F
:1081400041D02E4B019372B6019807F0DFFB00F08F
:10815000CBF806F0CBFBFCE7294B019372B60198F4
:1081600007F0D4FB00F0C0F806F0C0FBFCE7254B9D
:10817000019372B6019807F0C9FB00F0B5F806F05C
:10818000B5FBFCE7204B019372B6019807F0BEFBEC
:1081900000F0AAF806F0AAFBFCE71C4B019372B6AC
:1081A000019807F0B3FB00F09FF806F09FFBFCE797
:1081B000174B019372B6019807F0A8FB00F094F8F2
:1081C00006F094FBFCE7134C20460EF015FE20460B
:1081D0000EF038FF08B902B010BD72B60E4B019315
:1081E000019807F093FB00F07FF806F07FFBFCE7B7
:1081F000D88C0308C8AC0020DCAD002052038C06EC
:108200004D0383064E8383064F0384065003810685
:1082100051838206B4AD00205C837F0008B5094815
:10822000094B0360002303714371202343618023C2
:108230008361012303620EF0E3FF0028034808BFB7
:10824000002008BDE8AD0020003002403D000038AD
:1082500038B5104B00225A77194651F8045BAC68C8
:1082600044F00104AC605A60CA608A610A4919602E
:1082700001211971DA605A71986020225A618022B6
:108280009A61196218460EF0BBFF0028034808BF28
:10829000002038BDE8AD00200030024070000038FA
:1082A000044B00225A771A68936843F001039360E5
:1082B000704700BFE8AD002070B505460E46144675
:1082C00007480FF006F8012801D9064870BD32466C
:1082D000294603480EF0D4FF20600020F6E700BFD7
:1082E000E8AD00209B800038034B5B6813F0070F5C
:1082F00000D000BE704700BF002004E02DE9F0432D
:1083000087B016469DF8382060B30D461F4680465C
:108310002A2832D805293BD8022E44D8032B4DD821
:10832000022A56D8964B53F83090B9F1000F5BD023
:10833000934B03EBC0035C68002301930293039308
:108340000493059332B1012A18BF0022A1B2484616
:108350000FF07EFD0194052D72D8DFE805F0506224
:108360006E65686B874B009372B6009807F0CEFA83
:10837000FFF7BAFF06F0BAFAFCE7834B009372B638
:10838000009807F0C3FAFFF7AFFF06F0AFFAFCE77B
:108390007E4B009372B6009807F0B8FAFFF7A4FF7F
:1083A00006F0A4FAFCE77A4B009372B6009807F047
:1083B000ADFAFFF799FF06F099FAFCE7754B0093C9
:1083C00072B6009807F0A2FAFFF78EFF06F08EFA59
:1083D000FCE7714B009372B6009807F097FAFFF72D
:1083E00083FF06F083FAFCE76C4B009372B60098AB
:1083F00007F08CFAFFF778FF06F078FAFCE7002325
:108400000293012E2FD0022E30D026B3644B00935E
:1084100072B6009807F07AFAFFF766FF06F066FA80
:10842000FCE701230293ECE75E4B0293E9E75E4B26
:108430000293E6E75D4B0293E3E711230293E0E743
:108440005B4B009372B6009807F060FAFFF74CFFA1
:1084500006F04CFAFCE700230393032F36D8DFE83D
:1084600007F0082C2F3201230393F6E7022303932E
:10847000F3E70023049301A948460FF005FCEB1E27
:10848000DBB2022B00F2A880202C2AD8002C3ED090
:10849000631E1F2B3BD8DFE803F05D653A6C3A3A68
:1084A0003A913A3A3A3A3A3A3A983A3A3A3A3A3A77
:1084B0003A3A3A3A3A3A3A3A3A4901230493DAE7ED
:1084C00002230493D7E703230493D4E7394B0093A3
:1084D00072B6009807F01AFAFFF706FF06F006FAE0
:1084E000FCE7B4F5806F2ED00AD9B4F5005F2AD02E
:1084F00023D9B4F5804F26D0B4F5004F23D006E041
:10850000B4F5807F12D00DD9B4F5007F0ED02A4B80
:10851000009372B6009807F0F9F9FFF7E5FE06F050
:10852000E5F9FCE7402C01D0802CF0D117200EF0AB
:10853000EBFD17200EF0DAFD12E0B4F5006F02D06B
:10854000B4F5805FE3D128200EF0DEFD28200EF088
:10855000CDFD05E006200EF0D7FD06200EF0C6FD8D
:1085600002233AE007200EF0CFFD07200EF0BEFDFB
:10857000F6E708200EF0C8FD08200EF0B7FDEFE783
:10858000248D0308628080086300810864008208EB
:108590006580820866008308678083086980840894
:1085A000CA80820800002110000011100000311064
:1085B000AE008208EC0083083581800809200EF0A7
:1085C000A3FD09200EF092FDCAE70A200EF09CFDE3
:1085D0000A200EF08BFDC3E70123034A02F808309E
:1085E000002007B0BDE8F0830CAE00202A280AD88E
:1085F0000C4A52F830209AB10B4A105C022814BF82
:1086000000200120704700B583B0084B019372B67B
:10861000019807F07BF9FFF767FE06F067F9FCE7C2
:1086200000207047248D03080CAE00204D01810806
:1086300000B583B0A8B10A4603462A281CD82049B1
:1086400051F8300018B31F49C95C59BB1E4B019348
:1086500072B6019807F05AF9FFF746FE06F046F9A0
:10866000FCE71A4B019372B6019807F04FF9FFF738
:108670003BFE06F03BF9FCE7154B019372B60198FF
:1086800007F044F9FFF730FE06F030F9FCE7114B34
:10869000019372B6019807F039F9FFF725FE06F04D
:1086A00025F9FCE7064901EBC303012A14BF0022A8
:1086B000012299880FF0CCFB03B05DF804FB00BFEA
:1086C000248D03080CAE0020B3018408AF8180081C
:1086D000B0018108B281840800B583B0A0B103461F
:1086E0002A281CD81F4A52F8300018B31E4AD25C00
:1086F0005ABB1E4B019372B6019807F007F9FFF7BA
:10870000F3FD06F0F3F8FCE7194B019372B60198FC
:1087100007F0FCF8FFF7E8FD06F0E8F8FCE7154B7A
:10872000019372B6019807F0F1F8FFF7DDFD06F04E
:10873000DDF8FCE7104B019372B6019807F0E6F8FC
:10874000FFF7D2FD06F0D2F8FCE7064A02EBC303BE
:1087500099880FF077FB012814BF0020012003B097
:108760005DF804FB248D03080CAE0020C2018408D0
:10877000BE818008BF018108C18184082DE9F041D4
:10878000044618F071FA204618F0ACFA0546204667
:1087900018F09EFA014628460FF054FB18BB0A2732
:1087A0004FF000080126204618F086FA05462046BC
:1087B00018F078FA0146424628460FF049FB304649
:1087C0000DF03AFA204618F077FA0546204618F0E0
:1087D00069FA0146324628460FF03AFB30460DF062
:1087E0002BFA013FDFD1204618F066FA05462046F5
:1087F00018F058FA014628460FF024FB054620469B
:1088000018F070FA0646204618F062FA0146304623
:108810000FF018FB4DB10028054D18BF002520466C
:1088200018F06CFA2846BDE8F081014DF7E700BF6B
:108830009A00120270B582B0184A194902F1140563
:108840000023012417480EE0174B019372B60198DC
:1088500007F05CF8FFF748FD06F048F8FCE70C600D
:108860000431AA420AD052F8046B002EF7D00B60F4
:10887000C65C002EE8D1C4540133F1E7012B02D1CC
:10888000002002B070BD094B019372B6019807F049
:108890003DF8FFF729FD06F029F8FCE77C8E030878
:1088A0008CAE002088AE0020B5000F02C2000E0280
:1088B00030B583B0E0B10B4615460246042822D8F5
:1088C000454951F8201049B3444850F82240002C43
:1088D0002FD1434A1278012A36D0424B019372B607
:1088E000019807F013F8FFF7FFFC05F0FFFFFCE726
:1088F0003D4B019372B6019807F008F8FFF7F4FCBE
:1089000005F0F4FFFCE7394B019372B6019806F0CD
:10891000FDFFFFF7E9FC05F0E9FFFCE7344B0193AD
:1089200072B6019806F0F2FFFFF7DEFC05F0DEFFFD
:10893000FCE7304B019372B6019806F0E7FFFFF7B2
:10894000D3FC05F0D3FFFCE72B4801602B4A4260C3
:108950005B0083600123C360002303614361836183
:10896000C36103620FF0E8FB68BB2348036848F665
:1089700090725A61002110F060FF10BB00211E4868
:1089800010F089FFD8B9012D03D0154B03221A70BE
:108990001FE0194B1B681A4A934206D0194A9342AA
:1089A00008D00F4B02221A7013E04FF4801010F021
:1089B0009FFFF6E74FF4001010F09AFFF1E7124C1A
:1089C00007E0124C05E00C4B1B6848F690725A61A8
:1089D0000F4C204603B030BD7C8E03088CAE0020C7
:1089E00088AE0020F5000F02F1800C02F280030235
:1089F000F3000D02F4000E023CAE0020826650002F
:108A00000054004000580040260102021E010102ED
:108A10000C81000200B583B0C8B1042822D8274ACF
:108A200052F820204AB3264A52F82030002B2FD18A
:108A3000244B1B78002B36D1234B019372B601983F
:108A400006F064FFFFF750FC05F050FFFCE71F4BFA
:108A5000019372B6019806F059FFFFF745FC05F047
:108A600045FFFCE71A4B019372B6019806F04EFFE2
:108A7000FFF73AFC05F03AFFFCE7164B019372B69C
:108A8000019806F043FFFFF72FFC05F02FFFFCE7EE
:108A9000114B019372B6019806F038FFFFF724FCE2
:108AA00005F024FFFCE70D4810F0C4FE00F0F700CD
:108AB000203818BF012003B05DF804FB7C8E03084A
:108AC0008CAE002088AE00204F010F024B810C02BB
:108AD0004C8103024D010D024E010E023CAE0020FE
:108AE00000B583B090B104281BD8244A52F8202046
:108AF00012B3234A52F820304BBB224B1B78002B79
:108B000030D0214B186803B05DF804FB1F4B019374
:108B100072B6019806F0FAFEFFF7E6FB05F0E6FEF6
:108B2000FCE71B4B019372B6019806F0EFFEFFF7CE
:108B3000DBFB05F0DBFEFCE7164B019372B60198F8
:108B400006F0E4FEFFF7D0FB05F0D0FEFCE7124B89
:108B5000019372B6019806F0D9FEFFF7C5FB05F048
:108B6000C5FEFCE70D4B019372B6019806F0CEFEF0
:108B7000FFF7BAFB05F0BAFEFCE700BF7C8E0308E6
:108B80008CAE002088AE002038AE002062810C023E
:108B90006381030264010D0265010E0266010F028A
:108BA00000B583B098B104281CD8244A52F820207C
:108BB0001AB3234A52F8203053BB224B1B78002BA8
:108BC00031D0214B00221A6003B05DF804FB1F4B2B
:108BD000019372B6019806F099FEFFF785FB05F048
:108BE00085FEFCE71A4B019372B6019806F08EFEE3
:108BF000FFF77AFB05F07AFEFCE7164B019372B69D
:108C0000019806F083FEFFF76FFB05F06FFEFCE7AF
:108C1000114B019372B6019806F078FEFFF764FBE2
:108C200005F064FEFCE70D4B019372B6019806F067
:108C30006DFEFFF759FB05F059FEFCE77C8E03083B
:108C40008CAE002088AE002038AE00206F810C0270
:108C50007081030271010D0272010E0273010F0295
:108C6000F0B583B000282BD00E4615461F460428C9
:108C700031D83D4A52F82020002A37D03B4A52F8DA
:108C80002040002C3DD13A4B1B78032B44D1002DC2
:108C90004DD0384B1B689B6913F4004F52D1354BB4
:108CA0009B6B002B55D03B462A46314631480FF08E
:108CB000FBFB314B002818BF1C46204603B0F0BD1B
:108CC0002E4B019372B6019806F020FEFFF70CFBC5
:108CD00005F00CFEFCE72A4B019372B6019806F0F2
:108CE00015FEFFF701FB05F001FEFCE7254B0193A4
:108CF00072B6019806F00AFEFFF7F6FA05F0F6FDE7
:108D0000FCE7214B019372B6019806F0FFFDFFF7D7
:108D1000EBFA05F0EBFDFCE71C4B019372B60198F2
:108D200006F0F4FDFFF7E0FA05F0E0FDFCE7184B74
:108D3000019372B6019806F0E9FDFFF7D5FA05F048
:108D4000D5FDFCE70B48FFF719FD0028A7D0044626
:108D5000B3E73B462A46314606480FF00DFB0D4B64
:108D6000002818BF1C46A8E77C8E03088CAE0020A4
:108D700088AE00203CAE0020960104027C810C02EB
:108D80007D8103027E010D027F010E0280010F0230
:108D9000818112029E810402F0B583B000282BD09D
:108DA0000E4615461F46042831D83D4A52F8202069
:108DB000002A37D03B4A52F82040002C3DD13A4B94
:108DC0001B78032B44D1002D4DD0384B1B689B6979
:108DD00013F4004F52D1354BDB6B002B55D03B4683
:108DE0002A46314631480FF007FC314B002818BFA6
:108DF0001C46204603B0F0BD2E4B019372B601987D
:108E000006F084FDFFF770FA05F070FDFCE72A4BD1
:108E1000019372B6019806F079FDFFF765FA05F047
:108E200065FDFCE7254B019372B6019806F06EFDD7
:108E3000FFF75AFA05F05AFDFCE7214B019372B691
:108E4000019806F063FDFFF74FFA05F04FFDFCE7D0
:108E50001C4B019372B6019806F058FDFFF744FAD7
:108E600005F044FDFCE7184B019372B6019806F03B
:108E70004DFDFFF739FA05F039FDFCE70B48FFF728
:108E80007DFC0028A7D00446B3E73B462A4631467E
:108E900006480FF0BDFA0D4B002818BF1C46A8E786
:108EA0007C8E03088CAE002088AE00203CAE0020F3
:108EB000C2010502A8810C02A9810302AA010D02C8
:108EC000AB010E02AC010F02AD811202CA81050294
:108ED00010B582B0F0B1042827D82E4A52F82020CD
:108EE000002A2DD02C4A52F82040002C33D12B4B95
:108EF0001B78022B3AD12A4B93F84130DBB2282B56
:108F00003FD1274B1A68936843F40043936020468F
:108F100002B010BD234B019372B6019806F0F6FC27
:108F2000FFF7E2F905F0E2FCFCE71F4B019372B694
:108F3000019806F0EBFCFFF7D7F905F0D7FCFCE74A
:108F40001A4B019372B6019806F0E0FCFFF7CCF9DA
:108F500005F0CCFCFCE7164B019372B6019806F0C5
:108F6000D5FCFFF7C1F905F0C1FCFCE7114B0193FB
:108F700072B6019806F0CAFCFFF7B6F905F0B6FC28
:108F8000FCE707480FF0E8FD0B4B002818BF1C4614
:108F9000B7E700BF7C8E03088CAE002088AE0020AF
:108FA0003CAE002021820C022282030223020D0229
:108FB00024020E0225020F023082020200B583B0A5
:108FC000A8B104281ED8254A52F820202AB3244AE2
:108FD00052F8203063BB234B1B78022B33D1224B3A
:108FE0001B689869C0F3C00003B05DF804FB1F4B19
:108FF000019372B6019806F089FCFFF775F905F048
:1090000075FCFCE71A4B019372B6019806F07EFCE2
:10901000FFF76AF905F06AFCFCE7164B019372B69C
:10902000019806F073FCFFF75FF905F05FFCFCE7C1
:10903000114B019372B6019806F068FCFFF754F9E2
:1090400005F054FCFCE70D4B019372B6019806F055
:109050005DFCFFF749F905F049FCFCE77C8E03084D
:109060008CAE002088AE00203CAE00205A820C025C
:109070005B8203025C020D025D020E025E020F02C1
:1090800000B583B0A8B104281ED8254A52F8202084
:109090002AB3244A52F8203063BB234B1B78022B9F
:1090A00033D1224B1B689869C0F3C03003B05DF820
:1090B00004FB1F4B019372B6019806F027FCFFF7E3
:1090C00013F905F013FCFCE71A4B019372B60198F3
:1090D00006F01CFCFFF708F905F008FCFCE7164B4E
:1090E000019372B6019806F011FCFFF7FDF805F048
:1090F000FDFBFCE7114B019372B6019806F006FCEC
:10910000FFF7F2F805F0F2FBFCE70D4B019372B6A6
:10911000019806F0FBFBFFF7E7F805F0E7FBFCE73B
:109120007C8E03088CAE002088AE00203CAE002070
:1091300074820C027582030276020D0277020E021F
:1091400078020F0210B582B0E8B10B46042825D88A
:109150002B4951F8201000292BD02A4951F8202002
:10916000002A31D1284A1278012A38D9274AD06BEF
:1091700000283FD0026854681B1B9CB20EF0A7F970
:10918000204602B010BD224B019372B6019806F042
:10919000BDFBFFF7A9F805F0A9FBFCE71D4B019308
:1091A00072B6019806F0B2FBFFF79EF805F09EFB41
:1091B000FCE7194B019372B6019806F0A7FBFFF785
:1091C00093F805F093FBFCE7144B019372B60198FA
:1091D00006F09CFBFFF788F805F088FBFCE7104BD6
:1091E000019372B6019806F091FBFFF77DF805F048
:1091F0007DFBFCE7054A148D1B1B9CB2C0E700BF3A
:109200007C8E03088CAE002088AE00203CAE00208F
:10921000CB820C02CC820302CD020D02CE020E02E2
:10922000CF020F0200B583B0002842D004284BD8EB
:10923000414A52F82020002A51D0404A52F82030AA
:10924000002B57D13E4B1B78012B5ED93D490B6853
:109250009A6822F400429A601A6822F001021A60A9
:109260000B681A6812F0010F5AD11A6842F0010215
:109270001A60344BD86B08B10EF029F9314B986B5A
:1092800008B10EF024F92F4B1A6848F6907151611D
:10929000002083F84200202183F84110186383F8EE
:1092A00040005864136843F08003136003B05DF816
:1092B00004FB254B019372B6019806F027FBFFF7DC
:1092C00013F805F013FBFCE7204B019372B60198ED
:1092D00006F01CFBFFF708F805F008FBFCE71C4B49
:1092E000019372B6019806F011FBFEF7FDFF05F041
:1092F000FDFAFCE7174B019372B6019806F006FBE6
:10930000FEF7F2FF05F0F2FAFCE7134B019372B699
:10931000019806F0FBFAFEF7E7FF05F0E7FAFCE735
:109320000E4B019372B6019806F0F0FAFEF7DCFFDF
:1093300005F0DCFAFCE700BF7C8E03088CAE002051
:1093400088AE00203CAE002014830C02158303027B
:1093500016030D0217030E0218030F0226831102D3
:1093600070B582B000282ED00546042836D83F4874
:1093700050F8250000283CD03D4850F82500002832
:1093800042D13C480078022849D1002952D03A48BD
:1093900000688469866914F0080F5DD0C6F3004444
:1093A00016F4803F5AD18069C0F346401870324BA2
:1093B000DB6B002B49D000232F480FF0FFFA002869
:1093C00050D02E4C4BE02E4B019372B6019806F014
:1093D0009DFAFEF789FF05F089FAFCE7294B019316
:1093E00072B6019806F092FAFEF77EFF05F07EFA5B
:1093F000FCE7254B019372B6019806F087FAFEF759
:1094000073FF05F073FAFCE7204B019372B60198E5
:1094100006F07CFAFEF768FF05F068FAFCE71C4BE3
:10942000019372B6019806F071FAFEF75DFF05F040
:109430005DFAFCE7174B019372B6019806F066FAE5
:10944000FEF752FF05F052FAFCE700230A480FF03E
:1094500049FA38B1104C02E0104C00E00F4C28469D
:10946000FFF7E0FE204602B070BD00BF7C8E03080F
:109470008CAE002088AE00203CAE0020AB820602FD
:109480008E820C028F82030290020D0291020E0264
:1094900092020F0293821202B3020702B90206027D
:1094A0002DE9F04383B038B30C461746984606467C
:1094B00004282CD8394B53F82030002B32D0384BAD
:1094C00053F82050002D38D1364B1B78022B3FD15A
:1094D000002948D0344B9B6B002B4FD04FF00073CA
:1094E00031480FF02FF918B1304D3046FFF79AFE92
:1094F000284603B0BDE8F0832D4B019372B6019866
:1095000006F004FAFEF7F0FE05F0F0F9FCE7294B4F
:10951000019372B6019806F0F9F9FEF7E5FE05F041
:10952000E5F9FCE7244B019372B6019806F0EEF9D9
:10953000FEF7DAFE05F0DAF9FCE7204B019372B68C
:10954000019806F0E3F9FEF7CFFE05F0CFF9FCE74E
:109550001B4B019372B6019806F0D8F9FEF7C4FED2
:1095600005F0C4F9FCE7174B019372B6019806F0B9
:10957000CDF9FEF7B9FE05F0B9F9FCE7DFF8289060
:1095800048460FF0FFFA43463A46214648460EF059
:109590002DFE0028ACD00C4DA7E700BF7C8E030841
:1095A0008CAE002088AE00203CAE0020F582070281
:1095B000E5820C02E6820302E7020D02E8020E02D7
:1095C000E9020F02EA82120201030802F0B583B039
:1095D000F8B10546042827D8734B53F82030002BE8
:1095E0002DD0724B53F82040002C33D1704B1B7898
:1095F000023BDBB2012B38D86E4B1B689F691E689B
:10960000062900F2C580DFE801F052A762463B431D
:109610004F00694B019372B6019806F077F9FEF797
:1096200063FE05F063F9FCE7644B019372B60198A1
:1096300006F06CF9FEF758FE05F058F9FCE7604BB0
:10964000019372B6019806F061F9FEF74DFE05F040
:109650004DF9FCE75B4B019372B6019806F056F9A1
:10966000FEF742FE05F042F9FCE7574B019372B654
:10967000019806F04BF9FEF737FE05F037F9FCE7E5
:1096800004F0BAFC514B1C68002C32D003B0F0BD82
:1096900004F0B2FCF6E704F0AFFC464B1A6813681E
:1096A00043F080031360EDE704F0A6FCEAE7414EC7
:1096B00030460FF084FA746C96F84130DBB2202B00
:1096C00038D03C4B1A68136843F0800313603F4B5B
:1096D0001B68002BDAD114F0010F02D03B4B0122A2
:1096E0001A6014F0020F04D0384A136843F00203E2
:1096F000136014F0080F04D0344A136843F00403D5
:10970000136014F0040F04D0304A136843F00803C8
:10971000136014F0100F04D02C4A136843F01003A8
:10972000136014F0200FB1D0284A136843F02003CF
:109730001360ABE71E4B1B78022B03D0284604F0C6
:109740005BFCBEE714F0040FF8D024F00404736C43
:1097500023F004037364F1E7164810F01BF817F4C4
:10976000805F0FD016F0800F0CD0124A1368596832
:1097700041F400415960516C41F0200151644FF4B3
:109780008052DA610B4B5C6C2846FFF74BFD9EE77D
:1097900072B60F4B0193019806F0B8F8FEF7A4FDDE
:1097A00005F0A4F8FCE700BF7C8E03088CAE002017
:1097B00088AE00203CAE002068830C02698303025F
:1097C0006A030D026B030E026C030F0238AE002019
:1097D000DE837F00074B1B78012B00D07047064BC0
:1097E0001A68064B1B681344834201D8801A7047DD
:1097F0001044F3E7A8AE0020A4AE0020C0AE0020C5
:1098000010B58EB03D4B3E4A1A603E4B3E4A136047
:109810003E4A3F4911603F4A3F4911603F4A404933
:109820001160404A40490A60404C414921609B1AFE
:10983000404A1360404B1B6803F480730293029B01
:10984000003B18BF01233D4A137004A80EF0AAF88C
:1098500021683B4B00221A603A4B0393039B0BBBDE
:109860002A4B1B68254A1268B1FBF2F29A4224D1B6
:10987000284A126891422BD12E4909688A4232D374
:10988000B1FBF3F203FB1213002B0CBF1346531C66
:109890002D4A13602D4B01221A7000202C4B1860AA
:1098A0000EB010BD2B4B019372B6019806F02EF846
:1098B000FEF71AFD05F01AF8FCE7274B019372B684
:1098C000019806F023F8FEF70FFD05F00FF8FCE70E
:1098D000224B019372B6019806F018F8FEF704FDCA
:1098E00005F004F8FCE71E4B019372B6019806F0F0
:1098F0000DF8FEF7F9FC04F0F9FFFCE7CCAE002010
:109900000001000070430408B0AE0020C4AE002087
:1099100000080000A4AE002000000800C0AE002037
:109920000000000800400108A0AE0020C8AE0020E2
:1099300000000800B8AE002000000140A8AE0020E2
:10994000BCAE002000000000B4AE0020D0AE00206D
:10995000ACAE00206E02032071820320740204204A
:109960007702022008B50DF05DFF0028014808BF0E
:10997000002008BD9102002008B50DF067FF002807
:10998000014808BF002008BDA382002000B587B0B1
:10999000F8B10A460346017E012925D140691969BB
:1099A00088422CD2002102911978002932D04FF040
:1099B000FF320392DB68049301230593244B019348
:1099C00072B6019805F0A2FFFEF78EFC04F08EFF40
:1099D000FCE7204B019372B6019805F097FFFEF764
:1099E00083FC04F083FFFCE71B4B019372B60198E4
:1099F00005F08CFFFEF778FC04F078FFFCE7174BCE
:109A0000019372B6019805F081FFFEF76DFC04F03A
:109A10006DFFFCE701210391DB68049305918A4205
:109A200009D002A80EF020F800280D4808BF002039
:109A300007B05DF804FB01A902A80EF0A1F818B95F
:109A4000019BB3F1FF3F01D00548F1E70020EFE7AC
:109A5000928401208304062084040C2085040C20B9
:109A6000A8840220F0B583B018B38C46044603697D
:109A700083B3C168456801F1080028440D44002201
:109A800013461B0243EA126310F8016D46EA0222F4
:109A9000A842F6D12068BCF1000F15D00144002087
:109AA0000DF012FF0346002B0B4808BF002003B047
:109AB000F0BD0A4B019372B6019805F027FFFEF73F
:109AC00013FC04F013FFFCE7014400200DF0CAFD75
